:107B400011241FBE5A9A0CC08093C6008091C000B9
:107B500086FFFCCF8091C00080648093C0000895B0
:107B6000CDB7DEB7C252D140DEBFCDBF4A99D6C134
:107B7000259A2D981092C50088E08093C40088E172
:107B80008093C100AA24BB246624772488249924E6
:107B900000E0C25EDE4F1882CE51D140BBC1809161
:107BA000C00087FFFCCF2091C600933049F194308C
:107BB00028F4913079F09230F0F407C0953071F1EB
:107BC000953028F1963059F738C02B3141F791E0C4
:107BD0000BE1E5CF213039F0C25EDE4F3881CE5166
:107BE000D140231769F50227C25EDE4F2883CE51AC
:107BF000D14092E0D4CF522F40E0022793E0CFCF84
:107C0000822F90E0482B592B022794E0C8CF2E30CA
:107C1000B9F4022795E088249924C1CFFE01E80D2C
:107C2000F91D21830894811C911C02278416950656
:107C300009F0B5CFA40196E0B2CF201709F478C1BE
:107C400090E0ADCF1A8288E08B8381E48C8386E557
:107C50008D8382E58E8389E48F8383E5888780E541
:107C600089878FE58A8782E38B875BE0E52EF12C9D
:107C700015C18A81803939F0813960F0813929F064
:107C8000823941F404C08FE003C082E001C08AE081
:107C90008B8301C01B821A8242C08D81882311F41C
:107CA0008EE12DC0813011F08FE029C085E927C019
:107CB0001A82E1E0F0E089E08093570084918B83A1
:107CC0001C8244E0E42EF12CE9C08B81803589F4DC
:107CD0008C81883039F4E2E0F0E089E0809357004D
:107CE00084910DC0E0E0F0E089E08093570084913A
:107CF00006C0E3E0F0E089E08093570084911A82A7
:107D0000DECF8D81836C99E0E1E0F0E0082E909366
:107D10005700E89507B600FCFDCF1A821B8233E0BE
:107D2000E32EF12CBBC01A8266247724B4C03C80B9
:107D300022248D81A82EBB24A228B328AA0CBB1C08
:107D40001A82A9C08A81C05EDE4F8883C052D140AA
:107D5000C15EDE4F1882CF51D1408B81482F50E059
:107D6000C15EDE4FE881F981CF51D1404E2B5F2BB0
:107D7000933109F037C0FFE36F16FBE77F0660F42D
:107D800083E0F30180935700E89507B600FCFDCF30
:107D900020E830E0620E731EB501DE011B968C9167
:107DA00011962C9111971296522E442490E084291A
:107DB000952921E0FB010C0120935700E89511243F
:107DC0006E5F7F4F4250504051F785E0F501809340
:107DD0005700E89507B600FCFDCF81E1809357007E
:107DE000E89511C0FE013B96A1BCB2BC0894A11C51
:107DF000B11C819180BDFA9AF99AF999FECF415050
:107E0000504091F7B5011A825B0145C0FA81CE5D01
:107E1000DE4FF883C252D140CF5DDE4F1882C1528F
:107E2000D1408B81082F10E0CF5DDE4F2881398152
:107E3000C152D140022B132B1A828981BE016D5F82
:107E40007F4F843191F4A801DB01F5018591949174
:107E50008C9311969C931197129622E030E0A20E1B
:107E6000B31E4250504089F70DC09801DB01A1BC00
:107E7000B2BC0894A11CB11CF89A80B58D93215016
:107E80003040A9F793E0E92EF12CE00EF11E1C9290
:107E900005C080EC8A8382E0E82EF12C8BE10E9401
:107EA000A43DC25EDE4F8881CE51D1400E94A43DE8
:107EB0008F2D0E94A43D8E2D0E94A43D8EE00E9435
:107EC000A43D05E1C25EDE4F3881CE51D14003278B
:107ED0000E250F256E010894C11CD11C0AC0F601A5
:107EE00011916F01812F0E94A43D01270894E108A0
:107EF000F108E114F10499F7802F0E94A43DC25EBD
:107F0000DE4FF881CE51D140FF5FC25EDE4FF88375
:107F1000CE51D14090E040E050E041CE5A9881E10E
:107F200080935700E89511241F921F920895FFCF68
:107F30009981933109F406CF9431B0F4963009F465
:107F4000F6CE973050F4923009F4FACE933009F41B
:107F500090CE913009F09DCF75CE903108F499CF35
:107F6000923108F4EDCEDFCE983109F4AECE9931DE
:107F700050F4953109F4E6CE953108F447CF9631A7
:107F800009F087CF43CF9A3109F492CE9A3108F4A1
:0A7F9000B8CE9B3109F07DCF80CE02
:0400000300007B403E
:00000001FF
